{"abi":[{"type":"constructor","inputs":[],"stateMutability":"nonpayable"},{"type":"function","name":"approve","inputs":[{"name":"to","type":"address","internalType":"address"},{"name":"tokenId","type":"uint256","internalType":"uint256"}],"outputs":[],"stateMutability":"nonpayable"},{"type":"function","name":"balanceOf","inputs":[{"name":"owner","type":"address","internalType":"address"}],"outputs":[{"name":"","type":"uint256","internalType":"uint256"}],"stateMutability":"view"},{"type":"function","name":"getApproved","inputs":[{"name":"tokenId","type":"uint256","internalType":"uint256"}],"outputs":[{"name":"","type":"address","internalType":"address"}],"stateMutability":"view"},{"type":"function","name":"getRWAMetadata","inputs":[{"name":"tokenId","type":"uint256","internalType":"uint256"}],"outputs":[{"name":"","type":"tuple","internalType":"struct RWANFTContract.RWAMetadata","components":[{"name":"itemName","type":"string","internalType":"string"},{"name":"serialNumber","type":"string","internalType":"string"},{"name":"mintTimestamp","type":"uint256","internalType":"uint256"},{"name":"originalOwner","type":"address","internalType":"address"}]}],"stateMutability":"view"},{"type":"function","name":"isApprovedForAll","inputs":[{"name":"owner","type":"address","internalType":"address"},{"name":"operator","type":"address","internalType":"address"}],"outputs":[{"name":"","type":"bool","internalType":"bool"}],"stateMutability":"view"},{"type":"function","name":"mintNFT","inputs":[{"name":"to","type":"address","internalType":"address"},{"name":"metadataURI","type":"string","internalType":"string"},{"name":"itemName","type":"string","internalType":"string"},{"name":"serialNumber","type":"string","internalType":"string"}],"outputs":[{"name":"","type":"uint256","internalType":"uint256"}],"stateMutability":"nonpayable"},{"type":"function","name":"name","inputs":[],"outputs":[{"name":"","type":"string","internalType":"string"}],"stateMutability":"view"},{"type":"function","name":"owner","inputs":[],"outputs":[{"name":"","type":"address","internalType":"address"}],"stateMutability":"view"},{"type":"function","name":"ownerOf","inputs":[{"name":"tokenId","type":"uint256","internalType":"uint256"}],"outputs":[{"name":"","type":"address","internalType":"address"}],"stateMutability":"view"},{"type":"function","name":"renounceOwnership","inputs":[],"outputs":[],"stateMutability":"nonpayable"},{"type":"function","name":"rwaMetadata","inputs":[{"name":"","type":"uint256","internalType":"uint256"}],"outputs":[{"name":"itemName","type":"string","internalType":"string"},{"name":"serialNumber","type":"string","internalType":"string"},{"name":"mintTimestamp","type":"uint256","internalType":"uint256"},{"name":"originalOwner","type":"address","internalType":"address"}],"stateMutability":"view"},{"type":"function","name":"safeTransferFrom","inputs":[{"name":"from","type":"address","internalType":"address"},{"name":"to","type":"address","internalType":"address"},{"name":"tokenId","type":"uint256","internalType":"uint256"}],"outputs":[],"stateMutability":"nonpayable"},{"type":"function","name":"safeTransferFrom","inputs":[{"name":"from","type":"address","internalType":"address"},{"name":"to","type":"address","internalType":"address"},{"name":"tokenId","type":"uint256","internalType":"uint256"},{"name":"data","type":"bytes","internalType":"bytes"}],"outputs":[],"stateMutability":"nonpayable"},{"type":"function","name":"setApprovalForAll","inputs":[{"name":"operator","type":"address","internalType":"address"},{"name":"approved","type":"bool","internalType":"bool"}],"outputs":[],"stateMutability":"nonpayable"},{"type":"function","name":"supportsInterface","inputs":[{"name":"interfaceId","type":"bytes4","internalType":"bytes4"}],"outputs":[{"name":"","type":"bool","internalType":"bool"}],"stateMutability":"view"},{"type":"function","name":"symbol","inputs":[],"outputs":[{"name":"","type":"string","internalType":"string"}],"stateMutability":"view"},{"type":"function","name":"tokenURI","inputs":[{"name":"tokenId","type":"uint256","internalType":"uint256"}],"outputs":[{"name":"","type":"string","internalType":"string"}],"stateMutability":"view"},{"type":"function","name":"totalSupply","inputs":[],"outputs":[{"name":"","type":"uint256","internalType":"uint256"}],"stateMutability":"view"},{"type":"function","name":"transferFrom","inputs":[{"name":"from","type":"address","internalType":"address"},{"name":"to","type":"address","internalType":"address"},{"name":"tokenId","type":"uint256","internalType":"uint256"}],"outputs":[],"stateMutability":"nonpayable"},{"type":"function","name":"transferOwnership","inputs":[{"name":"newOwner","type":"address","internalType":"address"}],"outputs":[],"stateMutability":"nonpayable"},{"type":"event","name":"Approval","inputs":[{"name":"owner","type":"address","indexed":true,"internalType":"address"},{"name":"approved","type":"address","indexed":true,"internalType":"address"},{"name":"tokenId","type":"uint256","indexed":true,"internalType":"uint256"}],"anonymous":false},{"type":"event","name":"ApprovalForAll","inputs":[{"name":"owner","type":"address","indexed":true,"internalType":"address"},{"name":"operator","type":"address","indexed":true,"internalType":"address"},{"name":"approved","type":"bool","indexed":false,"internalType":"bool"}],"anonymous":false},{"type":"event","name":"NFTMinted","inputs":[{"name":"tokenId","type":"uint256","indexed":true,"internalType":"uint256"},{"name":"to","type":"address","indexed":true,"internalType":"address"},{"name":"itemName","type":"string","indexed":false,"internalType":"string"},{"name":"serialNumber","type":"string","indexed":false,"internalType":"string"},{"name":"metadataURI","type":"string","indexed":false,"internalType":"string"}],"anonymous":false},{"type":"event","name":"OwnershipTransferred","inputs":[{"name":"previousOwner","type":"address","indexed":true,"internalType":"address"},{"name":"newOwner","type":"address","indexed":true,"internalType":"address"}],"anonymous":false},{"type":"event","name":"Transfer","inputs":[{"name":"from","type":"address","indexed":true,"internalType":"address"},{"name":"to","type":"address","indexed":true,"internalType":"address"},{"name":"tokenId","type":"uint256","indexed":true,"internalType":"uint256"}],"anonymous":false},{"type":"error","name":"ERC721IncorrectOwner","inputs":[{"name":"sender","type":"address","internalType":"address"},{"name":"tokenId","type":"uint256","internalType":"uint256"},{"name":"owner","type":"address","internalType":"address"}]},{"type":"error","name":"ERC721InsufficientApproval","inputs":[{"name":"operator","type":"address","internalType":"address"},{"name":"tokenId","type":"uint256","internalType":"uint256"}]},{"type":"error","name":"ERC721InvalidApprover","inputs":[{"name":"approver","type":"address","internalType":"address"}]},{"type":"error","name":"ERC721InvalidOperator","inputs":[{"name":"operator","type":"address","internalType":"address"}]},{"type":"error","name":"ERC721InvalidOwner","inputs":[{"name":"owner","type":"address","internalType":"address"}]},{"type":"error","name":"ERC721InvalidReceiver","inputs":[{"name":"receiver","type":"address","internalType":"address"}]},{"type":"error","name":"ERC721InvalidSender","inputs":[{"name":"sender","type":"address","internalType":"address"}]},{"type":"error","name":"ERC721NonexistentToken","inputs":[{"name":"tokenId","type":"uint256","internalType":"uint256"}]},{"type":"error","name":"OwnableInvalidOwner","inputs":[{"name":"owner","type":"address","internalType":"address"}]},{"type":"error","name":"OwnableUnauthorizedAccount","inputs":[{"name":"account","type":"address","internalType":"address"}]}],"bytecode":{"object":"0x608060405234801562000010575f80fd5b5033604051806040016040528060078152602001661495d04813919560ca1b815250604051806040016040528060068152602001651495d053919560d21b815250815f9081620000619190620001a4565b506001620000708282620001a4565b5050506001600160a01b038116620000a157604051631e4fbdf760e01b81525f600482015260240160405180910390fd5b620000ac81620000b3565b506200026c565b600680546001600160a01b038381166001600160a01b0319831681179093556040519116919082907f8be0079c531659141344cd1fd0a4f28419497f9722a3daafe3b4186f6b6457e0905f90a35050565b634e487b7160e01b5f52604160045260245ffd5b600181811c908216806200012d57607f821691505b6020821081036200014c57634e487b7160e01b5f52602260045260245ffd5b50919050565b601f8211156200019f575f81815260208120601f850160051c810160208610156200017a5750805b601f850160051c820191505b818110156200019b5782815560010162000186565b5050505b505050565b81516001600160401b03811115620001c057620001c062000104565b620001d881620001d1845462000118565b8462000152565b602080601f8311600181146200020e575f8415620001f65750858301515b5f19600386901b1c1916600185901b1785556200019b565b5f85815260208120601f198616915b828110156200023e578886015182559484019460019091019084016200021d565b50858210156200025c57878501515f19600388901b60f8161c191681555b5050505050600190811b01905550565b6117a8806200027a5f395ff3fe608060405234801561000f575f80fd5b5060043610610127575f3560e01c806370a08231116100a9578063a22cb4651161006e578063a22cb4651461027d578063b88d4fde14610290578063c87b56dd146102a3578063e985e9c5146102b6578063f2fde38b146102c9575f80fd5b806370a0823114610236578063715018a6146102495780637791d3f3146102515780638da5cb5b1461026457806395d89b4114610275575f80fd5b806323b872dd116100ef57806323b872dd146101ba57806342842e0e146101cd5780635ba2fd94146101e05780636352211e146102005780636f312e6414610213575f80fd5b806301ffc9a71461012b57806306fdde0314610153578063081812fc14610168578063095ea7b31461019357806318160ddd146101a8575b5f80fd5b61013e6101393660046111ac565b6102dc565b60405190151581526020015b60405180910390f35b61015b61032d565b60405161014a9190611211565b61017b610176366004611223565b6103bc565b6040516001600160a01b03909116815260200161014a565b6101a66101a1366004611255565b6103e3565b005b6007545b60405190815260200161014a565b6101a66101c836600461127d565b6103f2565b6101a66101db36600461127d565b610480565b6101f36101ee366004611223565b61049f565b60405161014a91906112b6565b61017b61020e366004611223565b610686565b610226610221366004611223565b610690565b60405161014a949392919061131a565b6101ac610244366004611360565b6107cd565b6101a6610812565b6101ac61025f36600461141e565b610825565b6006546001600160a01b031661017b565b61015b610a14565b6101a661028b3660046114b1565b610a23565b6101a661029e3660046114ea565b610a2e565b61015b6102b1366004611223565b610a46565b61013e6102c4366004611555565b610b3e565b6101a66102d7366004611360565b610b6b565b5f6001600160e01b031982166380ac58cd60e01b148061030c57506001600160e01b03198216635b5e139f60e01b145b8061032757506301ffc9a760e01b6001600160e01b03198316145b92915050565b60605f805461033b90611586565b80601f016020809104026020016040519081016040528092919081815260200182805461036790611586565b80156103b25780601f10610389576101008083540402835291602001916103b2565b820191905f5260205f20905b81548152906001019060200180831161039557829003601f168201915b5050505050905090565b5f6103c682610ba8565b505f828152600460205260409020546001600160a01b0316610327565b6103ee828233610be0565b5050565b6001600160a01b03821661042057604051633250574960e11b81525f60048201526024015b60405180910390fd5b5f61042c838333610bed565b9050836001600160a01b0316816001600160a01b03161461047a576040516364283d7b60e01b81526001600160a01b0380861660048301526024820184905282166044820152606401610417565b50505050565b61049a83838360405180602001604052805f815250610a2e565b505050565b6104d1604051806080016040528060608152602001606081526020015f81526020015f6001600160a01b031681525090565b5f828152600260205260409020546001600160a01b031661052b5760405162461bcd60e51b8152602060048201526014602482015273151bdad95b88191bd95cc81b9bdd08195e1a5cdd60621b6044820152606401610417565b5f828152600860205260409081902081516080810190925280548290829061055290611586565b80601f016020809104026020016040519081016040528092919081815260200182805461057e90611586565b80156105c95780601f106105a0576101008083540402835291602001916105c9565b820191905f5260205f20905b8154815290600101906020018083116105ac57829003601f168201915b505050505081526020016001820180546105e290611586565b80601f016020809104026020016040519081016040528092919081815260200182805461060e90611586565b80156106595780601f1061063057610100808354040283529160200191610659565b820191905f5260205f20905b81548152906001019060200180831161063c57829003601f168201915b5050509183525050600282015460208201526003909101546001600160a01b031660409091015292915050565b5f61032782610ba8565b60086020525f90815260409020805481906106aa90611586565b80601f01602080910402602001604051908101604052809291908181526020018280546106d690611586565b80156107215780601f106106f857610100808354040283529160200191610721565b820191905f5260205f20905b81548152906001019060200180831161070457829003601f168201915b50505050509080600101805461073690611586565b80601f016020809104026020016040519081016040528092919081815260200182805461076290611586565b80156107ad5780601f10610784576101008083540402835291602001916107ad565b820191905f5260205f20905b81548152906001019060200180831161079057829003601f168201915b5050505060028301546003909301549192916001600160a01b0316905084565b5f6001600160a01b0382166107f7576040516322718ad960e21b81525f6004820152602401610417565b506001600160a01b03165f9081526003602052604090205490565b61081a610cdf565b6108235f610d0c565b565b5f808451116108765760405162461bcd60e51b815260206004820152601c60248201527f4d65746164617461205552492063616e6e6f7420626520656d707479000000006044820152606401610417565b5f8351116108c65760405162461bcd60e51b815260206004820152601960248201527f4974656d206e616d652063616e6e6f7420626520656d707479000000000000006044820152606401610417565b5f8251116109165760405162461bcd60e51b815260206004820152601d60248201527f53657269616c206e756d6265722063616e6e6f7420626520656d7074790000006044820152606401610417565b600780549081905f610927836115be565b91905055506109368682610d5d565b6109408186610d76565b60408051608081018252858152602080820186905242828401526001600160a01b03891660608301525f848152600890915291909120815181906109849082611627565b50602082015160018201906109999082611627565b506040828101516002830155606090920151600390910180546001600160a01b0319166001600160a01b0392831617905590519087169082907f83dccdf3f2e2864e31b51b8043c5a1713bf88997265c066a523dffdd3d9082fb90610a0390889088908b906116e3565b60405180910390a395945050505050565b60606001805461033b90611586565b6103ee338383610d8d565b610a398484846103f2565b61047a3385858585610e2b565b5f818152600260205260409020546060906001600160a01b0316610aa35760405162461bcd60e51b8152602060048201526014602482015273151bdad95b88191bd95cc81b9bdd08195e1a5cdd60621b6044820152606401610417565b5f8281526009602052604090208054610abb90611586565b80601f0160208091040260200160405190810160405280929190818152602001828054610ae790611586565b8015610b325780601f10610b0957610100808354040283529160200191610b32565b820191905f5260205f20905b815481529060010190602001808311610b1557829003601f168201915b50505050509050919050565b6001600160a01b039182165f90815260056020908152604080832093909416825291909152205460ff1690565b610b73610cdf565b6001600160a01b038116610b9c57604051631e4fbdf760e01b81525f6004820152602401610417565b610ba581610d0c565b50565b5f818152600260205260408120546001600160a01b03168061032757604051637e27328960e01b815260048101849052602401610417565b61049a8383836001610f53565b5f828152600260205260408120546001600160a01b0390811690831615610c1957610c19818486611057565b6001600160a01b03811615610c5357610c345f855f80610f53565b6001600160a01b0381165f90815260036020526040902080545f190190555b6001600160a01b03851615610c81576001600160a01b0385165f908152600360205260409020805460010190555b5f8481526002602052604080822080546001600160a01b0319166001600160a01b0389811691821790925591518793918516917fddf252ad1be2c89b69c2b068fc378daa952ba7f163c4a11628f55a4df523b3ef91a4949350505050565b6006546001600160a01b031633146108235760405163118cdaa760e01b8152336004820152602401610417565b600680546001600160a01b038381166001600160a01b0319831681179093556040519116919082907f8be0079c531659141344cd1fd0a4f28419497f9722a3daafe3b4186f6b6457e0905f90a35050565b6103ee828260405180602001604052805f8152506110bb565b5f82815260096020526040902061049a8282611627565b6001600160a01b038216610dbf57604051630b61174360e31b81526001600160a01b0383166004820152602401610417565b6001600160a01b038381165f81815260056020908152604080832094871680845294825291829020805460ff191686151590811790915591519182527f17307eab39ab6107e8899845ad3d59bd9653f200f220920489ca2b5937696c31910160405180910390a3505050565b6001600160a01b0383163b15610f4c57604051630a85bd0160e11b81526001600160a01b0384169063150b7a0290610e6d908890889087908790600401611725565b6020604051808303815f875af1925050508015610ea7575060408051601f3d908101601f19168201909252610ea491810190611757565b60015b610f0e573d808015610ed4576040519150601f19603f3d011682016040523d82523d5f602084013e610ed9565b606091505b5080515f03610f0657604051633250574960e11b81526001600160a01b0385166004820152602401610417565b805160208201fd5b6001600160e01b03198116630a85bd0160e11b14610f4a57604051633250574960e11b81526001600160a01b0385166004820152602401610417565b505b5050505050565b8080610f6757506001600160a01b03821615155b15611028575f610f7684610ba8565b90506001600160a01b03831615801590610fa25750826001600160a01b0316816001600160a01b031614155b8015610fb55750610fb38184610b3e565b155b15610fde5760405163a9fbf51f60e01b81526001600160a01b0384166004820152602401610417565b81156110265783856001600160a01b0316826001600160a01b03167f8c5be1e5ebec7d5bd14f71427d1e84f3dd0314c0f7b2291e5b200ac8c7c3b92560405160405180910390a45b505b50505f90815260046020526040902080546001600160a01b0319166001600160a01b0392909216919091179055565b6110628383836110d2565b61049a576001600160a01b03831661109057604051637e27328960e01b815260048101829052602401610417565b60405163177e802f60e01b81526001600160a01b038316600482015260248101829052604401610417565b6110c58383611136565b61049a335f858585610e2b565b5f6001600160a01b0383161580159061112e5750826001600160a01b0316846001600160a01b0316148061110b575061110b8484610b3e565b8061112e57505f828152600460205260409020546001600160a01b038481169116145b949350505050565b6001600160a01b03821661115f57604051633250574960e11b81525f6004820152602401610417565b5f61116b83835f610bed565b90506001600160a01b0381161561049a576040516339e3563760e11b81525f6004820152602401610417565b6001600160e01b031981168114610ba5575f80fd5b5f602082840312156111bc575f80fd5b81356111c781611197565b9392505050565b5f81518084525f5b818110156111f2576020818501810151868301820152016111d6565b505f602082860101526020601f19601f83011685010191505092915050565b602081525f6111c760208301846111ce565b5f60208284031215611233575f80fd5b5035919050565b80356001600160a01b0381168114611250575f80fd5b919050565b5f8060408385031215611266575f80fd5b61126f8361123a565b946020939093013593505050565b5f805f6060848603121561128f575f80fd5b6112988461123a565b92506112a66020850161123a565b9150604084013590509250925092565b602081525f8251608060208401526112d160a08401826111ce565b90506020840151601f198483030160408501526112ee82826111ce565b6040860151606086810191909152909501516001600160a01b0316608090940193909352509192915050565b608081525f61132c60808301876111ce565b828103602084015261133e81876111ce565b604084019590955250506001600160a01b039190911660609091015292915050565b5f60208284031215611370575f80fd5b6111c78261123a565b634e487b7160e01b5f52604160045260245ffd5b5f67ffffffffffffffff808411156113a7576113a7611379565b604051601f8501601f19908116603f011681019082821181831017156113cf576113cf611379565b816040528093508581528686860111156113e7575f80fd5b858560208301375f602087830101525050509392505050565b5f82601f83011261140f575f80fd5b6111c78383356020850161138d565b5f805f8060808587031215611431575f80fd5b61143a8561123a565b9350602085013567ffffffffffffffff80821115611456575f80fd5b61146288838901611400565b94506040870135915080821115611477575f80fd5b61148388838901611400565b93506060870135915080821115611498575f80fd5b506114a587828801611400565b91505092959194509250565b5f80604083850312156114c2575f80fd5b6114cb8361123a565b9150602083013580151581146114df575f80fd5b809150509250929050565b5f805f80608085870312156114fd575f80fd5b6115068561123a565b93506115146020860161123a565b925060408501359150606085013567ffffffffffffffff811115611536575f80fd5b8501601f81018713611546575f80fd5b6114a58782356020840161138d565b5f8060408385031215611566575f80fd5b61156f8361123a565b915061157d6020840161123a565b90509250929050565b600181811c9082168061159a57607f821691505b6020821081036115b857634e487b7160e01b5f52602260045260245ffd5b50919050565b5f600182016115db57634e487b7160e01b5f52601160045260245ffd5b5060010190565b601f82111561049a575f81815260208120601f850160051c810160208610156116085750805b601f850160051c820191505b81811015610f4a57828155600101611614565b815167ffffffffffffffff81111561164157611641611379565b6116558161164f8454611586565b846115e2565b602080601f831160018114611688575f84156116715750858301515b5f19600386901b1c1916600185901b178555610f4a565b5f85815260208120601f198616915b828110156116b657888601518255948401946001909101908401611697565b50858210156116d357878501515f19600388901b60f8161c191681555b5050505050600190811b01905550565b606081525f6116f560608301866111ce565b828103602084015261170781866111ce565b9050828103604084015261171b81856111ce565b9695505050505050565b6001600160a01b03858116825284166020820152604081018390526080606082018190525f9061171b908301846111ce565b5f60208284031215611767575f80fd5b81516111c78161119756fea2646970667358221220e7eaa5d579d2d2fd719ebe26b945943ae297c4736ff181f2247f0bdda7ee3f6e64736f6c63430008140033","linkReferences":{}},"methodIdentifiers":{"approve(address,uint256)":"095ea7b3","balanceOf(address)":"70a08231","getApproved(uint256)":"081812fc","getRWAMetadata(uint256)":"5ba2fd94","isApprovedForAll(address,address)":"e985e9c5","mintNFT(address,string,string,string)":"7791d3f3","name()":"06fdde03","owner()":"8da5cb5b","ownerOf(uint256)":"6352211e","renounceOwnership()":"715018a6","rwaMetadata(uint256)":"6f312e64","safeTransferFrom(address,address,uint256)":"42842e0e","safeTransferFrom(address,address,uint256,bytes)":"b88d4fde","setApprovalForAll(address,bool)":"a22cb465","supportsInterface(bytes4)":"01ffc9a7","symbol()":"95d89b41","tokenURI(uint256)":"c87b56dd","totalSupply()":"18160ddd","transferFrom(address,address,uint256)":"23b872dd","transferOwnership(address)":"f2fde38b"},"id":31}